{
  "_format": "hh-sol-artifact-1",
  "contractName": "TokenFactoryV2",
  "sourceName": "contracts/TokenFactoryV2.sol",
  "abi": [
    {
      "inputs": [
        {
          "internalType": "uint256",
          "name": "_creationFee",
          "type": "uint256"
        }
      ],
      "stateMutability": "nonpayable",
      "type": "constructor"
    },
    {
      "inputs": [
        {
          "internalType": "address",
          "name": "owner",
          "type": "address"
        }
      ],
      "name": "OwnableInvalidOwner",
      "type": "error"
    },
    {
      "inputs": [
        {
          "internalType": "address",
          "name": "account",
          "type": "address"
        }
      ],
      "name": "OwnableUnauthorizedAccount",
      "type": "error"
    },
    {
      "anonymous": false,
      "inputs": [
        {
          "indexed": false,
          "internalType": "uint256",
          "name": "oldFee",
          "type": "uint256"
        },
        {
          "indexed": false,
          "internalType": "uint256",
          "name": "newFee",
          "type": "uint256"
        }
      ],
      "name": "CreationFeeUpdated",
      "type": "event"
    },
    {
      "anonymous": false,
      "inputs": [
        {
          "indexed": true,
          "internalType": "address",
          "name": "to",
          "type": "address"
        },
        {
          "indexed": false,
          "internalType": "uint256",
          "name": "amount",
          "type": "uint256"
        }
      ],
      "name": "FeesWithdrawn",
      "type": "event"
    },
    {
      "anonymous": false,
      "inputs": [
        {
          "indexed": true,
          "internalType": "address",
          "name": "previousOwner",
          "type": "address"
        },
        {
          "indexed": true,
          "internalType": "address",
          "name": "newOwner",
          "type": "address"
        }
      ],
      "name": "OwnershipTransferred",
      "type": "event"
    },
    {
      "anonymous": false,
      "inputs": [
        {
          "indexed": true,
          "internalType": "address",
          "name": "token",
          "type": "address"
        },
        {
          "indexed": true,
          "internalType": "address",
          "name": "creator",
          "type": "address"
        },
        {
          "indexed": false,
          "internalType": "string",
          "name": "name",
          "type": "string"
        },
        {
          "indexed": false,
          "internalType": "string",
          "name": "symbol",
          "type": "string"
        },
        {
          "indexed": false,
          "internalType": "uint8",
          "name": "decimals",
          "type": "uint8"
        },
        {
          "indexed": false,
          "internalType": "uint256",
          "name": "totalSupply",
          "type": "uint256"
        }
      ],
      "name": "TokenCreated",
      "type": "event"
    },
    {
      "anonymous": false,
      "inputs": [
        {
          "indexed": true,
          "internalType": "address",
          "name": "token",
          "type": "address"
        },
        {
          "indexed": true,
          "internalType": "address",
          "name": "creator",
          "type": "address"
        },
        {
          "indexed": false,
          "internalType": "string",
          "name": "name",
          "type": "string"
        },
        {
          "indexed": false,
          "internalType": "string",
          "name": "symbol",
          "type": "string"
        },
        {
          "indexed": false,
          "internalType": "string",
          "name": "logoUrl",
          "type": "string"
        },
        {
          "indexed": false,
          "internalType": "string",
          "name": "website",
          "type": "string"
        }
      ],
      "name": "TokenCreatedWithMetadata",
      "type": "event"
    },
    {
      "anonymous": false,
      "inputs": [
        {
          "indexed": true,
          "internalType": "address",
          "name": "token",
          "type": "address"
        },
        {
          "indexed": true,
          "internalType": "address",
          "name": "creator",
          "type": "address"
        },
        {
          "indexed": false,
          "internalType": "string",
          "name": "name",
          "type": "string"
        },
        {
          "indexed": false,
          "internalType": "string",
          "name": "symbol",
          "type": "string"
        },
        {
          "indexed": false,
          "internalType": "uint256",
          "name": "vbcgPaid",
          "type": "uint256"
        },
        {
          "indexed": false,
          "internalType": "uint256",
          "name": "vbcgBurned",
          "type": "uint256"
        }
      ],
      "name": "TokenCreatedWithVBCG",
      "type": "event"
    },
    {
      "anonymous": false,
      "inputs": [
        {
          "indexed": false,
          "internalType": "uint256",
          "name": "oldFee",
          "type": "uint256"
        },
        {
          "indexed": false,
          "internalType": "uint256",
          "name": "newFee",
          "type": "uint256"
        }
      ],
      "name": "VBCGFeeUpdated",
      "type": "event"
    },
    {
      "anonymous": false,
      "inputs": [
        {
          "indexed": false,
          "internalType": "address",
          "name": "oldToken",
          "type": "address"
        },
        {
          "indexed": false,
          "internalType": "address",
          "name": "newToken",
          "type": "address"
        }
      ],
      "name": "VBCGTokenUpdated",
      "type": "event"
    },
    {
      "inputs": [],
      "name": "DEAD_ADDRESS",
      "outputs": [
        {
          "internalType": "address",
          "name": "",
          "type": "address"
        }
      ],
      "stateMutability": "view",
      "type": "function"
    },
    {
      "inputs": [
        {
          "internalType": "string",
          "name": "name",
          "type": "string"
        },
        {
          "internalType": "string",
          "name": "symbol",
          "type": "string"
        },
        {
          "internalType": "uint8",
          "name": "decimals_",
          "type": "uint8"
        },
        {
          "internalType": "uint256",
          "name": "totalSupply_",
          "type": "uint256"
        }
      ],
      "name": "createToken",
      "outputs": [
        {
          "internalType": "address",
          "name": "token",
          "type": "address"
        }
      ],
      "stateMutability": "payable",
      "type": "function"
    },
    {
      "inputs": [
        {
          "internalType": "string",
          "name": "name",
          "type": "string"
        },
        {
          "internalType": "string",
          "name": "symbol",
          "type": "string"
        },
        {
          "internalType": "uint8",
          "name": "decimals_",
          "type": "uint8"
        },
        {
          "internalType": "uint256",
          "name": "totalSupply_",
          "type": "uint256"
        },
        {
          "internalType": "string",
          "name": "logoUrl_",
          "type": "string"
        },
        {
          "internalType": "string",
          "name": "description_",
          "type": "string"
        },
        {
          "internalType": "string",
          "name": "website_",
          "type": "string"
        }
      ],
      "name": "createTokenWithMetadata",
      "outputs": [
        {
          "internalType": "address",
          "name": "token",
          "type": "address"
        }
      ],
      "stateMutability": "payable",
      "type": "function"
    },
    {
      "inputs": [
        {
          "internalType": "string",
          "name": "name",
          "type": "string"
        },
        {
          "internalType": "string",
          "name": "symbol",
          "type": "string"
        },
        {
          "internalType": "uint8",
          "name": "decimals_",
          "type": "uint8"
        },
        {
          "internalType": "uint256",
          "name": "totalSupply_",
          "type": "uint256"
        }
      ],
      "name": "createTokenWithVBCG",
      "outputs": [
        {
          "internalType": "address",
          "name": "token",
          "type": "address"
        }
      ],
      "stateMutability": "nonpayable",
      "type": "function"
    },
    {
      "inputs": [
        {
          "internalType": "string",
          "name": "name",
          "type": "string"
        },
        {
          "internalType": "string",
          "name": "symbol",
          "type": "string"
        },
        {
          "internalType": "uint8",
          "name": "decimals_",
          "type": "uint8"
        },
        {
          "internalType": "uint256",
          "name": "totalSupply_",
          "type": "uint256"
        },
        {
          "internalType": "string",
          "name": "logoUrl_",
          "type": "string"
        },
        {
          "internalType": "string",
          "name": "description_",
          "type": "string"
        },
        {
          "internalType": "string",
          "name": "website_",
          "type": "string"
        }
      ],
      "name": "createTokenWithVBCGAndMetadata",
      "outputs": [
        {
          "internalType": "address",
          "name": "token",
          "type": "address"
        }
      ],
      "stateMutability": "nonpayable",
      "type": "function"
    },
    {
      "inputs": [],
      "name": "creationFee",
      "outputs": [
        {
          "internalType": "uint256",
          "name": "",
          "type": "uint256"
        }
      ],
      "stateMutability": "view",
      "type": "function"
    },
    {
      "inputs": [
        {
          "internalType": "address",
          "name": "",
          "type": "address"
        },
        {
          "internalType": "uint256",
          "name": "",
          "type": "uint256"
        }
      ],
      "name": "creatorTokens",
      "outputs": [
        {
          "internalType": "address",
          "name": "",
          "type": "address"
        }
      ],
      "stateMutability": "view",
      "type": "function"
    },
    {
      "inputs": [],
      "name": "getAllTokens",
      "outputs": [
        {
          "internalType": "address[]",
          "name": "",
          "type": "address[]"
        }
      ],
      "stateMutability": "view",
      "type": "function"
    },
    {
      "inputs": [],
      "name": "getBalance",
      "outputs": [
        {
          "internalType": "uint256",
          "name": "",
          "type": "uint256"
        }
      ],
      "stateMutability": "view",
      "type": "function"
    },
    {
      "inputs": [
        {
          "internalType": "uint256",
          "name": "count",
          "type": "uint256"
        }
      ],
      "name": "getLatestTokens",
      "outputs": [
        {
          "internalType": "address[]",
          "name": "",
          "type": "address[]"
        }
      ],
      "stateMutability": "view",
      "type": "function"
    },
    {
      "inputs": [],
      "name": "getTokenCount",
      "outputs": [
        {
          "internalType": "uint256",
          "name": "",
          "type": "uint256"
        }
      ],
      "stateMutability": "view",
      "type": "function"
    },
    {
      "inputs": [
        {
          "internalType": "address",
          "name": "token",
          "type": "address"
        }
      ],
      "name": "getTokenDetails",
      "outputs": [
        {
          "internalType": "address",
          "name": "creator",
          "type": "address"
        },
        {
          "internalType": "string",
          "name": "name",
          "type": "string"
        },
        {
          "internalType": "string",
          "name": "symbol",
          "type": "string"
        },
        {
          "internalType": "uint8",
          "name": "tokenDecimals",
          "type": "uint8"
        },
        {
          "internalType": "uint256",
          "name": "totalSupply",
          "type": "uint256"
        },
        {
          "internalType": "uint256",
          "name": "createdAt",
          "type": "uint256"
        },
        {
          "internalType": "string",
          "name": "logoUrl",
          "type": "string"
        },
        {
          "internalType": "string",
          "name": "description",
          "type": "string"
        },
        {
          "internalType": "string",
          "name": "website",
          "type": "string"
        }
      ],
      "stateMutability": "view",
      "type": "function"
    },
    {
      "inputs": [
        {
          "internalType": "address",
          "name": "creator",
          "type": "address"
        }
      ],
      "name": "getTokensByCreator",
      "outputs": [
        {
          "internalType": "address[]",
          "name": "",
          "type": "address[]"
        }
      ],
      "stateMutability": "view",
      "type": "function"
    },
    {
      "inputs": [],
      "name": "getVBCGFeeInfo",
      "outputs": [
        {
          "internalType": "address",
          "name": "token",
          "type": "address"
        },
        {
          "internalType": "uint256",
          "name": "fee",
          "type": "uint256"
        },
        {
          "internalType": "uint256",
          "name": "burned",
          "type": "uint256"
        }
      ],
      "stateMutability": "view",
      "type": "function"
    },
    {
      "inputs": [
        {
          "internalType": "address",
          "name": "",
          "type": "address"
        }
      ],
      "name": "isFactoryToken",
      "outputs": [
        {
          "internalType": "bool",
          "name": "",
          "type": "bool"
        }
      ],
      "stateMutability": "view",
      "type": "function"
    },
    {
      "inputs": [],
      "name": "owner",
      "outputs": [
        {
          "internalType": "address",
          "name": "",
          "type": "address"
        }
      ],
      "stateMutability": "view",
      "type": "function"
    },
    {
      "inputs": [],
      "name": "renounceOwnership",
      "outputs": [],
      "stateMutability": "nonpayable",
      "type": "function"
    },
    {
      "inputs": [
        {
          "internalType": "uint256",
          "name": "_newFee",
          "type": "uint256"
        }
      ],
      "name": "setCreationFee",
      "outputs": [],
      "stateMutability": "nonpayable",
      "type": "function"
    },
    {
      "inputs": [
        {
          "internalType": "uint256",
          "name": "_newFee",
          "type": "uint256"
        }
      ],
      "name": "setVBCGCreationFee",
      "outputs": [],
      "stateMutability": "nonpayable",
      "type": "function"
    },
    {
      "inputs": [
        {
          "internalType": "address",
          "name": "_vbcgToken",
          "type": "address"
        }
      ],
      "name": "setVBCGToken",
      "outputs": [],
      "stateMutability": "nonpayable",
      "type": "function"
    },
    {
      "inputs": [
        {
          "internalType": "address",
          "name": "",
          "type": "address"
        }
      ],
      "name": "tokenInfo",
      "outputs": [
        {
          "internalType": "address",
          "name": "creator",
          "type": "address"
        },
        {
          "internalType": "string",
          "name": "name",
          "type": "string"
        },
        {
          "internalType": "string",
          "name": "symbol",
          "type": "string"
        },
        {
          "internalType": "uint8",
          "name": "decimals",
          "type": "uint8"
        },
        {
          "internalType": "uint256",
          "name": "totalSupply",
          "type": "uint256"
        },
        {
          "internalType": "uint256",
          "name": "createdAt",
          "type": "uint256"
        },
        {
          "internalType": "string",
          "name": "logoUrl",
          "type": "string"
        },
        {
          "internalType": "string",
          "name": "description",
          "type": "string"
        },
        {
          "internalType": "string",
          "name": "website",
          "type": "string"
        }
      ],
      "stateMutability": "view",
      "type": "function"
    },
    {
      "inputs": [
        {
          "internalType": "uint256",
          "name": "",
          "type": "uint256"
        }
      ],
      "name": "tokens",
      "outputs": [
        {
          "internalType": "address",
          "name": "",
          "type": "address"
        }
      ],
      "stateMutability": "view",
      "type": "function"
    },
    {
      "inputs": [],
      "name": "totalVbcgBurned",
      "outputs": [
        {
          "internalType": "uint256",
          "name": "",
          "type": "uint256"
        }
      ],
      "stateMutability": "view",
      "type": "function"
    },
    {
      "inputs": [
        {
          "internalType": "address",
          "name": "newOwner",
          "type": "address"
        }
      ],
      "name": "transferOwnership",
      "outputs": [],
      "stateMutability": "nonpayable",
      "type": "function"
    },
    {
      "inputs": [],
      "name": "vbcgCreationFee",
      "outputs": [
        {
          "internalType": "uint256",
          "name": "",
          "type": "uint256"
        }
      ],
      "stateMutability": "view",
      "type": "function"
    },
    {
      "inputs": [],
      "name": "vbcgToken",
      "outputs": [
        {
          "internalType": "address",
          "name": "",
          "type": "address"
        }
      ],
      "stateMutability": "view",
      "type": "function"
    },
    {
      "inputs": [
        {
          "internalType": "address payable",
          "name": "to",
          "type": "address"
        }
      ],
      "name": "withdrawFees",
      "outputs": [],
      "stateMutability": "nonpayable",
      "type": "function"
    },
    {
      "stateMutability": "payable",
      "type": "receive"
    }
  ],
  "bytecode": "0x6080604052348015600f57600080fd5b50604051614266380380614266833981016040819052602c9160bd565b3380605157604051631e4fbdf760e01b81526000600482015260240160405180910390fd5b605881606d565b50600555683635c9adc5dea0000060075560d5565b600080546001600160a01b038381166001600160a01b0319831681178455604051919092169283917f8be0079c531659141344cd1fd0a4f28419497f9722a3daafe3b4186f6b6457e09190a35050565b60006020828403121560ce57600080fd5b5051919050565b614182806100e46000396000f3fe6080604052600436106101a05760003560e01c806386645290116100ec578063c95069a31161008a578063db3fa4cc11610064578063db3fa4cc146104aa578063dce0b4e4146104ca578063f2fde38b146104e0578063f5dab7111461050057600080fd5b8063c95069a31461044a578063d1c329b11461046a578063d5c712751461048a57600080fd5b806390e63cb3116100c657806390e63cb3146103b4578063a4b7914e146103ca578063aabcb0fd1461040a578063b7d862251461042a57600080fd5b8063866452901461034157806388aa8bee146103615780638da5cb5b1461039657600080fd5b8063446c3942116101595780634f64b2be116101335780634f64b2be146102e45780635623e92414610304578063715018a61461031757806378a895671461032c57600080fd5b8063446c3942146102985780634e6c5265146102ae5780634e6fd6c4146102ce57600080fd5b806312065fe0146101ac5780631228b009146101ce578063164e68de146102065780631a1b622e14610228578063210f5dda146102635780632a5c792a1461027657600080fd5b366101a757005b600080fd5b3480156101b857600080fd5b50475b6040519081526020015b60405180910390f35b3480156101da57600080fd5b506101ee6101e9366004611d3e565b610520565b6040516001600160a01b0390911681526020016101c5565b34801561021257600080fd5b50610226610221366004611e59565b61053d565b005b34801561023457600080fd5b50600654600754600854604080516001600160a01b0390941684526020840192909252908201526060016101c5565b6101ee610271366004611e7d565b610656565b34801561028257600080fd5b5061028b61069d565b6040516101c59190611efe565b3480156102a457600080fd5b506101bb60085481565b3480156102ba57600080fd5b506101ee6102c9366004611e7d565b6106ff565b3480156102da57600080fd5b506101ee61dead81565b3480156102f057600080fd5b506101ee6102ff366004611f4a565b61073d565b6101ee610312366004611d3e565b610767565b34801561032357600080fd5b50610226610778565b34801561033857600080fd5b506001546101bb565b34801561034d57600080fd5b5061028b61035c366004611f4a565b61078c565b34801561036d57600080fd5b5061038161037c366004611e59565b61086f565b6040516101c599989796959493929190611fa9565b3480156103a257600080fd5b506000546001600160a01b03166101ee565b3480156103c057600080fd5b506101bb60075481565b3480156103d657600080fd5b506103fa6103e5366004611e59565b60036020526000908152604090205460ff1681565b60405190151581526020016101c5565b34801561041657600080fd5b50610226610425366004611f4a565b610c2f565b34801561043657600080fd5b50610226610445366004611f4a565b610c7d565b34801561045657600080fd5b506006546101ee906001600160a01b031681565b34801561047657600080fd5b50610226610485366004611e59565b610cc3565b34801561049657600080fd5b5061028b6104a5366004611e59565b610d72565b3480156104b657600080fd5b506101ee6104c5366004612042565b610de8565b3480156104d657600080fd5b506101bb60055481565b3480156104ec57600080fd5b506102266104fb366004611e59565b610e20565b34801561050c57600080fd5b5061038161051b366004611e59565b610e5e565b600061053188888888888888611160565b98975050505050505050565b610545611740565b6001600160a01b0381166105945760405162461bcd60e51b8152602060048201526011602482015270125b9d985b1a59081c9958da5c1a595b9d607a1b60448201526064015b60405180910390fd5b47806105d85760405162461bcd60e51b81526020600482015260136024820152724e6f206665657320746f20776974686472617760681b604482015260640161058b565b6040516001600160a01b0383169082156108fc029083906000818181858888f1935050505015801561060e573d6000803e3d6000fd5b50816001600160a01b03167fc0819c13be868895eb93e40eaceb96de976442fa1d404e5c55f14bb65a8c489a8260405161064a91815260200190565b60405180910390a25050565b60006106948585858560405180602001604052806000815250604051806020016040528060008152506040518060200160405280600081525061176d565b95945050505050565b606060018054806020026020016040519081016040528092919081815260200182805480156106f557602002820191906000526020600020905b81546001600160a01b031681526001909101906020018083116106d7575b5050505050905090565b600061069485858585604051806020016040528060008152506040518060200160405280600081525060405180602001604052806000815250611160565b6001818154811061074d57600080fd5b6000918252602090912001546001600160a01b0316905081565b60006105318888888888888861176d565b610780611740565b61078a6000611c26565b565b6001546060908083111561079e578092505b60008367ffffffffffffffff8111156107b9576107b9611c83565b6040519080825280602002602001820160405280156107e2578160200160208202803683370190505b50905060005b84811015610867576001816107fd8286612084565b6108079190612084565b815481106108175761081761209d565b9060005260206000200160009054906101000a90046001600160a01b03168282815181106108475761084761209d565b6001600160a01b03909216602092830291909101909101526001016107e8565b509392505050565b6000606080600080600060608060606000600260008c6001600160a01b03166001600160a01b03168152602001908152602001600020604051806101200160405290816000820160009054906101000a90046001600160a01b03166001600160a01b03166001600160a01b031681526020016001820180546108f0906120b3565b80601f016020809104026020016040519081016040528092919081815260200182805461091c906120b3565b80156109695780601f1061093e57610100808354040283529160200191610969565b820191906000526020600020905b81548152906001019060200180831161094c57829003601f168201915b50505050508152602001600282018054610982906120b3565b80601f01602080910402602001604051908101604052809291908181526020018280546109ae906120b3565b80156109fb5780601f106109d0576101008083540402835291602001916109fb565b820191906000526020600020905b8154815290600101906020018083116109de57829003601f168201915b5050509183525050600382015460ff1660208201526004820154604082015260058201546060820152600682018054608090920191610a39906120b3565b80601f0160208091040260200160405190810160405280929190818152602001828054610a65906120b3565b8015610ab25780601f10610a8757610100808354040283529160200191610ab2565b820191906000526020600020905b815481529060010190602001808311610a9557829003601f168201915b50505050508152602001600782018054610acb906120b3565b80601f0160208091040260200160405190810160405280929190818152602001828054610af7906120b3565b8015610b445780601f10610b1957610100808354040283529160200191610b44565b820191906000526020600020905b815481529060010190602001808311610b2757829003601f168201915b50505050508152602001600882018054610b5d906120b3565b80601f0160208091040260200160405190810160405280929190818152602001828054610b89906120b3565b8015610bd65780601f10610bab57610100808354040283529160200191610bd6565b820191906000526020600020905b815481529060010190602001808311610bb957829003601f168201915b5050505050815250509050806000015181602001518260400151836060015184608001518560a001518660c001518760e00151886101000151995099509950995099509950995099509950509193959799909294969850565b610c37611740565b600780549082905560408051828152602081018490527f55325fd2df38bd857bacf73f17b9b344260d0cdbbc6671e7c8bbd66a4a345ad091015b60405180910390a15050565b610c85611740565b600580549082905560408051828152602081018490527f5de302eeb1c80d4fb0c0953b692353f09ddf431411b8eb2034d5e857695619129101610c71565b610ccb611740565b6001600160a01b038116610d185760405162461bcd60e51b8152602060048201526014602482015273496e76616c69642056424347206164647265737360601b604482015260640161058b565b600680546001600160a01b038381166001600160a01b031983168117909355604080519190921680825260208201939093527f7dcfc8a282999141514d3231a7ac2927a817433cd2fa5295110d8810ba1a3f9d9101610c71565b6001600160a01b038116600090815260046020908152604091829020805483518184028101840190945280845260609392830182828015610ddc57602002820191906000526020600020905b81546001600160a01b03168152600190910190602001808311610dbe575b50505050509050919050565b60046020528160005260406000208181548110610e0457600080fd5b6000918252602090912001546001600160a01b03169150829050565b610e28611740565b6001600160a01b038116610e5257604051631e4fbdf760e01b81526000600482015260240161058b565b610e5b81611c26565b50565b600260205260009081526040902080546001820180546001600160a01b039092169291610e8a906120b3565b80601f0160208091040260200160405190810160405280929190818152602001828054610eb6906120b3565b8015610f035780601f10610ed857610100808354040283529160200191610f03565b820191906000526020600020905b815481529060010190602001808311610ee657829003601f168201915b505050505090806002018054610f18906120b3565b80601f0160208091040260200160405190810160405280929190818152602001828054610f44906120b3565b8015610f915780601f10610f6657610100808354040283529160200191610f91565b820191906000526020600020905b815481529060010190602001808311610f7457829003601f168201915b505050600384015460048501546005860154600687018054969760ff9094169692955090935090610fc1906120b3565b80601f0160208091040260200160405190810160405280929190818152602001828054610fed906120b3565b801561103a5780601f1061100f5761010080835404028352916020019161103a565b820191906000526020600020905b81548152906001019060200180831161101d57829003601f168201915b50505050509080600701805461104f906120b3565b80601f016020809104026020016040519081016040528092919081815260200182805461107b906120b3565b80156110c85780601f1061109d576101008083540402835291602001916110c8565b820191906000526020600020905b8154815290600101906020018083116110ab57829003601f168201915b5050505050908060080180546110dd906120b3565b80601f0160208091040260200160405190810160405280929190818152602001828054611109906120b3565b80156111565780601f1061112b57610100808354040283529160200191611156565b820191906000526020600020905b81548152906001019060200180831161113957829003601f168201915b5050505050905089565b6006546000906001600160a01b03166111bb5760405162461bcd60e51b815260206004820152601960248201527f5642434720746f6b656e206e6f7420636f6e6669677572656400000000000000604482015260640161058b565b6000600754116112005760405162461bcd60e51b815260206004820152601060248201526f159090d1c8199959481b9bdd081cd95d60821b604482015260640161058b565b60008851116112485760405162461bcd60e51b81526020600482015260146024820152734e616d652063616e6e6f7420626520656d70747960601b604482015260640161058b565b6000875111801561125b5750600b875111155b6112a75760405162461bcd60e51b815260206004820152601e60248201527f53796d626f6c206d75737420626520312d313120636861726163746572730000604482015260640161058b565b60128660ff1611156112f45760405162461bcd60e51b8152602060048201526016602482015275088cac6d2dac2d8e640daeae6e840c4ca40787a4062760531b604482015260640161058b565b6000851161133f5760405162461bcd60e51b81526020600482015260186024820152770546f74616c20737570706c79206d757374206265203e20360441b604482015260640161058b565b6006546007546040516323b872dd60e01b815233600482015261dead602482015260448101919091526001600160a01b039091169081906323b872dd906064016020604051808303816000875af115801561139e573d6000803e3d6000fd5b505050506040513d601f19601f820116820180604052508101906113c291906120ed565b6114055760405162461bcd60e51b8152602060048201526014602482015273159090d1c81d1c985b9cd9995c8819985a5b195960621b604482015260640161058b565b60075460086000828254611419919061210f565b92505081905550600089898989338a8a8a60405161143690611c76565b611447989796959493929190612122565b604051809103906000f080158015611463573d6000803e3d6000fd5b5090508092506001839080600181540180825580915050600190039060005260206000200160009091909190916101000a8154816001600160a01b0302191690836001600160a01b03160217905550604051806101200160405280336001600160a01b031681526020018b81526020018a81526020018960ff1681526020018881526020014281526020018781526020018681526020018581525060026000856001600160a01b03166001600160a01b0316815260200190815260200160002060008201518160000160006101000a8154816001600160a01b0302191690836001600160a01b0316021790555060208201518160010190816115659190612202565b506040820151600282019061157a9082612202565b50606082015160038201805460ff191660ff9092169190911790556080820151600482015560a0820151600582015560c082015160068201906115bd9082612202565b5060e082015160078201906115d29082612202565b5061010082015160088201906115e89082612202565b5050506001600160a01b0383166000818152600360209081526040808320805460ff1916600190811790915533808552600484528285208054928301815585529290932090920180546001600160a01b0319168417905590519091907f6aba688e0d9fb13e49808a9f69e09384142cd46853e4ecfcf79aa7e4d63c183290611677908e908e908e908e906122c1565b60405180910390a360075460405133916001600160a01b038616917fb0576ab9c1605c4807e71aed220abcc89455feb00468d065320f4fb1c89d6f29916116c3918f918f9181906122fd565b60405180910390a36000865111806116dc575060008451115b1561173357336001600160a01b0316836001600160a01b03167f0525e4c1c095e466e857d2318133a947154fc780d32e4aa59eff5cd8d47d02ea8c8c8a8960405161172a9493929190612336565b60405180910390a35b5050979650505050505050565b6000546001600160a01b0316331461078a5760405163118cdaa760e01b815233600482015260240161058b565b6000808851116117b65760405162461bcd60e51b81526020600482015260146024820152734e616d652063616e6e6f7420626520656d70747960601b604482015260640161058b565b600087511180156117c95750600b875111155b6118155760405162461bcd60e51b815260206004820152601e60248201527f53796d626f6c206d75737420626520312d313120636861726163746572730000604482015260640161058b565b60128660ff1611156118625760405162461bcd60e51b8152602060048201526016602482015275088cac6d2dac2d8e640daeae6e840c4ca40787a4062760531b604482015260640161058b565b600085116118ad5760405162461bcd60e51b81526020600482015260186024820152770546f74616c20737570706c79206d757374206265203e20360441b604482015260640161058b565b6005543410156118ff5760405162461bcd60e51b815260206004820152601960248201527f496e73756666696369656e74206372656174696f6e2066656500000000000000604482015260640161058b565b6000888888883389898960405161191590611c76565b611926989796959493929190612122565b604051809103906000f080158015611942573d6000803e3d6000fd5b5090508091506001829080600181540180825580915050600190039060005260206000200160009091909190916101000a8154816001600160a01b0302191690836001600160a01b03160217905550604051806101200160405280336001600160a01b031681526020018a81526020018981526020018860ff1681526020018781526020014281526020018681526020018581526020018481525060026000846001600160a01b03166001600160a01b0316815260200190815260200160002060008201518160000160006101000a8154816001600160a01b0302191690836001600160a01b031602179055506020820151816001019081611a449190612202565b5060408201516002820190611a599082612202565b50606082015160038201805460ff191660ff9092169190911790556080820151600482015560a0820151600582015560c08201516006820190611a9c9082612202565b5060e08201516007820190611ab19082612202565b506101008201516008820190611ac79082612202565b5050506001600160a01b0382166000818152600360209081526040808320805460ff191660019081179091553384526004835290832080549182018155835291200180546001600160a01b0319169091179055600554341115611b615760055433906108fc90611b379034612084565b6040518115909202916000818181858888f19350505050158015611b5f573d6000803e3d6000fd5b505b336001600160a01b0316826001600160a01b03167f6aba688e0d9fb13e49808a9f69e09384142cd46853e4ecfcf79aa7e4d63c18328b8b8b8b604051611baa94939291906122c1565b60405180910390a3600085511180611bc3575060008351115b15611c1a57336001600160a01b0316826001600160a01b03167f0525e4c1c095e466e857d2318133a947154fc780d32e4aa59eff5cd8d47d02ea8b8b8988604051611c119493929190612336565b60405180910390a35b50979650505050505050565b600080546001600160a01b038381166001600160a01b0319831681178455604051919092169283917f8be0079c531659141344cd1fd0a4f28419497f9722a3daafe3b4186f6b6457e09190a35050565b611dbe8061238f83390190565b634e487b7160e01b600052604160045260246000fd5b600082601f830112611caa57600080fd5b813567ffffffffffffffff811115611cc457611cc4611c83565b604051601f8201601f19908116603f0116810167ffffffffffffffff81118282101715611cf357611cf3611c83565b604052818152838201602001851015611d0b57600080fd5b816020850160208301376000918101602001919091529392505050565b803560ff81168114611d3957600080fd5b919050565b600080600080600080600060e0888a031215611d5957600080fd5b873567ffffffffffffffff811115611d7057600080fd5b611d7c8a828b01611c99565b975050602088013567ffffffffffffffff811115611d9957600080fd5b611da58a828b01611c99565b965050611db460408901611d28565b945060608801359350608088013567ffffffffffffffff811115611dd757600080fd5b611de38a828b01611c99565b93505060a088013567ffffffffffffffff811115611e0057600080fd5b611e0c8a828b01611c99565b92505060c088013567ffffffffffffffff811115611e2957600080fd5b611e358a828b01611c99565b91505092959891949750929550565b6001600160a01b0381168114610e5b57600080fd5b600060208284031215611e6b57600080fd5b8135611e7681611e44565b9392505050565b60008060008060808587031215611e9357600080fd5b843567ffffffffffffffff811115611eaa57600080fd5b611eb687828801611c99565b945050602085013567ffffffffffffffff811115611ed357600080fd5b611edf87828801611c99565b935050611eee60408601611d28565b9396929550929360600135925050565b602080825282518282018190526000918401906040840190835b81811015611f3f5783516001600160a01b0316835260209384019390920191600101611f18565b509095945050505050565b600060208284031215611f5c57600080fd5b5035919050565b6000815180845260005b81811015611f8957602081850181015186830182015201611f6d565b506000602082860101526020601f19601f83011685010191505092915050565b6001600160a01b038a16815261012060208201819052600090611fce9083018b611f63565b8281036040840152611fe0818b611f63565b905060ff891660608401528760808401528660a084015282810360c08401526120098187611f63565b905082810360e084015261201d8186611f63565b90508281036101008401526120328185611f63565b9c9b505050505050505050505050565b6000806040838503121561205557600080fd5b823561206081611e44565b946020939093013593505050565b634e487b7160e01b600052601160045260246000fd5b818103818111156120975761209761206e565b92915050565b634e487b7160e01b600052603260045260246000fd5b600181811c908216806120c757607f821691505b6020821081036120e757634e487b7160e01b600052602260045260246000fd5b50919050565b6000602082840312156120ff57600080fd5b81518015158114611e7657600080fd5b808201808211156120975761209761206e565b6101008152600061213761010083018b611f63565b8281036020840152612149818b611f63565b60ff8a166040850152606084018990526001600160a01b038816608085015283810360a0850152905061217c8187611f63565b905082810360c08401526121908186611f63565b905082810360e08401526121a48185611f63565b9b9a5050505050505050505050565b601f8211156121fd57806000526020600020601f840160051c810160208510156121da5750805b601f840160051c820191505b818110156121fa57600081556001016121e6565b50505b505050565b815167ffffffffffffffff81111561221c5761221c611c83565b6122308161222a84546120b3565b846121b3565b6020601f821160018114612264576000831561224c5750848201515b600019600385901b1c1916600184901b1784556121fa565b600084815260208120601f198516915b828110156122945787850151825560209485019460019092019101612274565b50848210156122b25786840151600019600387901b60f8161c191681555b50505050600190811b01905550565b6080815260006122d46080830187611f63565b82810360208401526122e68187611f63565b60ff95909516604084015250506060015292915050565b6080815260006123106080830187611f63565b82810360208401526123228187611f63565b604084019590955250506060015292915050565b6080815260006123496080830187611f63565b828103602084015261235b8187611f63565b9050828103604084015261236f8186611f63565b905082810360608401526123838185611f63565b97965050505050505056fe608060405234801561001057600080fd5b50604051611dbe380380611dbe83398101604081905261002f916103e2565b838888600361003e8382610584565b50600461004b8282610584565b5050506001600160a01b03811661007d57604051631e4fbdf760e01b8152600060048201526024015b60405180910390fd5b610086816100f5565b506005805460ff60a81b1916600160a81b60ff8916021790556100a9848661014f565b8251156100be5760066100bc8482610584565b505b8151156100d35760076100d18382610584565b505b8051156100e85760086100e68282610584565b505b5050505050505050610669565b600580546001600160a01b03838116610100818102610100600160a81b031985161790945560405193909204169182907f8be0079c531659141344cd1fd0a4f28419497f9722a3daafe3b4186f6b6457e090600090a35050565b6001600160a01b0382166101795760405163ec442f0560e01b815260006004820152602401610074565b61018560008383610189565b5050565b610194838383610199565b505050565b6101a16101ac565b6101948383836101d2565b60055460ff16156101d05760405163d93c066560e01b815260040160405180910390fd5b565b6001600160a01b0383166101fd5780600260008282546101f29190610642565b9091555061026f9050565b6001600160a01b038316600090815260208190526040902054818110156102505760405163391434e360e21b81526001600160a01b03851660048201526024810182905260448101839052606401610074565b6001600160a01b03841660009081526020819052604090209082900390555b6001600160a01b03821661028b576002805482900390556102aa565b6001600160a01b03821660009081526020819052604090208054820190555b816001600160a01b0316836001600160a01b03167fddf252ad1be2c89b69c2b068fc378daa952ba7f163c4a11628f55a4df523b3ef836040516102ef91815260200190565b60405180910390a3505050565b634e487b7160e01b600052604160045260246000fd5b600082601f83011261032357600080fd5b81516001600160401b0381111561033c5761033c6102fc565b604051601f8201601f19908116603f011681016001600160401b038111828210171561036a5761036a6102fc565b60405281815283820160200185101561038257600080fd5b60005b828110156103a157602081860181015183830182015201610385565b506000918101602001919091529392505050565b805160ff811681146103c657600080fd5b919050565b80516001600160a01b03811681146103c657600080fd5b600080600080600080600080610100898b0312156103ff57600080fd5b88516001600160401b0381111561041557600080fd5b6104218b828c01610312565b60208b015190995090506001600160401b0381111561043f57600080fd5b61044b8b828c01610312565b97505061045a60408a016103b5565b60608a0151909650945061047060808a016103cb565b60a08a01519094506001600160401b0381111561048c57600080fd5b6104988b828c01610312565b60c08b015190945090506001600160401b038111156104b657600080fd5b6104c28b828c01610312565b60e08b015190935090506001600160401b038111156104e057600080fd5b6104ec8b828c01610312565b9150509295985092959890939650565b600181811c9082168061051057607f821691505b60208210810361053057634e487b7160e01b600052602260045260246000fd5b50919050565b601f82111561019457806000526020600020601f840160051c8101602085101561055d5750805b601f840160051c820191505b8181101561057d5760008155600101610569565b5050505050565b81516001600160401b0381111561059d5761059d6102fc565b6105b1816105ab84546104fc565b84610536565b6020601f8211600181146105e557600083156105cd5750848201515b600019600385901b1c1916600184901b17845561057d565b600084815260208120601f198516915b8281101561061557878501518255602094850194600190920191016105f5565b50848210156106335786840151600019600387901b60f8161c191681555b50505050600190811b01905550565b8082018082111561066357634e487b7160e01b600052601160045260246000fd5b92915050565b611746806106786000396000f3fe608060405234801561001057600080fd5b50600436106101e55760003560e01c80638456cb591161010f578063bf748234116100a2578063e8e81fe411610071578063e8e81fe4146103f6578063ecc9d32e14610409578063f2fde38b1461041c578063f87f44b91461042f57600080fd5b8063bf7482341461038f578063c2a5e5c2146103a2578063dd62ed3e146103b5578063e8bd71e1146103ee57600080fd5b8063993d77af116100de578063993d77af14610364578063a9059cbb1461036c578063abfaeee01461037f578063beb0a4161461038757600080fd5b80638456cb59146103185780638da5cb5b1461032057806390c3f38f1461034957806395d89b411461035c57600080fd5b806342966c6811610187578063715018a611610156578063715018a6146102db5780637284e416146102e357806379cc6790146102eb5780637a5b4f59146102fe57600080fd5b806342966c681461028c57806347ecb6651461029f5780635c975abb146102a757806370a08231146102b257600080fd5b806323b872dd116101c357806323b872dd1461023d5780632eca0a3614610250578063313ce567146102655780633f4ba83a1461028457600080fd5b806306fdde03146101ea578063095ea7b31461020857806318160ddd1461022b575b600080fd5b6101f2610442565b6040516101ff91906110df565b60405180910390f35b61021b610216366004611115565b6104d4565b60405190151581526020016101ff565b6002545b6040519081526020016101ff565b61021b61024b36600461113f565b6104ee565b61026361025e366004611221565b610512565b005b600554600160a81b900460ff1660405160ff90911681526020016101ff565b61026361054f565b61026361029a36600461125e565b610561565b6101f261056e565b60055460ff1661021b565b61022f6102c0366004611277565b6001600160a01b031660009081526020819052604090205490565b6102636105fc565b6101f261060e565b6102636102f9366004611115565b61061b565b610306610634565b6040516101ff96959493929190611292565b6102636109a5565b60055461010090046001600160a01b03166040516001600160a01b0390911681526020016101ff565b610263610357366004611221565b6109b5565b6101f26109e7565b6101f26109f6565b61021b61037a366004611115565b610a03565b6101f2610a11565b6101f2610a1e565b61026361039d366004611221565b610a2b565b6102636103b0366004611221565b610a5d565b61022f6103c3366004611314565b6001600160a01b03918216600090815260016020908152604080832093909416825291909152205490565b6101f2610a8f565b610263610404366004611221565b610a9c565b610263610417366004611347565b610ace565b61026361042a366004611277565b610b86565b61026361043d366004611221565b610bc6565b6060600380546104519061145d565b80601f016020809104026020016040519081016040528092919081815260200182805461047d9061145d565b80156104ca5780601f1061049f576101008083540402835291602001916104ca565b820191906000526020600020905b8154815290600101906020018083116104ad57829003601f168201915b5050505050905090565b6000336104e2818585610bf8565b60019150505b92915050565b6000336104fc858285610c0a565b610507858585610c89565b506001949350505050565b61051a610ce8565b600b61052682826114e5565b506000805160206116f18339815191528160405161054491906115a4565b60405180910390a150565b610557610ce8565b61055f610d1b565b565b61056b3382610d6d565b50565b600a805461057b9061145d565b80601f01602080910402602001604051908101604052809291908181526020018280546105a79061145d565b80156105f45780601f106105c9576101008083540402835291602001916105f4565b820191906000526020600020905b8154815290600101906020018083116105d757829003601f168201915b505050505081565b610604610ce8565b61055f6000610da3565b6007805461057b9061145d565b610626823383610c0a565b6106308282610d6d565b5050565b6060806060806060806006600760086009600a600b8580546106559061145d565b80601f01602080910402602001604051908101604052809291908181526020018280546106819061145d565b80156106ce5780601f106106a3576101008083540402835291602001916106ce565b820191906000526020600020905b8154815290600101906020018083116106b157829003601f168201915b505050505095508480546106e19061145d565b80601f016020809104026020016040519081016040528092919081815260200182805461070d9061145d565b801561075a5780601f1061072f5761010080835404028352916020019161075a565b820191906000526020600020905b81548152906001019060200180831161073d57829003601f168201915b5050505050945083805461076d9061145d565b80601f01602080910402602001604051908101604052809291908181526020018280546107999061145d565b80156107e65780601f106107bb576101008083540402835291602001916107e6565b820191906000526020600020905b8154815290600101906020018083116107c957829003601f168201915b505050505093508280546107f99061145d565b80601f01602080910402602001604051908101604052809291908181526020018280546108259061145d565b80156108725780601f1061084757610100808354040283529160200191610872565b820191906000526020600020905b81548152906001019060200180831161085557829003601f168201915b505050505092508180546108859061145d565b80601f01602080910402602001604051908101604052809291908181526020018280546108b19061145d565b80156108fe5780601f106108d3576101008083540402835291602001916108fe565b820191906000526020600020905b8154815290600101906020018083116108e157829003601f168201915b505050505091508080546109119061145d565b80601f016020809104026020016040519081016040528092919081815260200182805461093d9061145d565b801561098a5780601f1061095f5761010080835404028352916020019161098a565b820191906000526020600020905b81548152906001019060200180831161096d57829003601f168201915b50505050509050955095509550955095509550909192939495565b6109ad610ce8565b61055f610dfd565b6109bd610ce8565b60076109c982826114e5565b506000805160206116f18339815191528160405161054491906115d5565b6060600480546104519061145d565b6006805461057b9061145d565b6000336104e2818585610c89565b6009805461057b9061145d565b6008805461057b9061145d565b610a33610ce8565b6006610a3f82826114e5565b506000805160206116f183398151915281604051610544919061160a565b610a65610ce8565b6009610a7182826114e5565b506000805160206116f183398151915281604051610544919061163b565b600b805461057b9061145d565b610aa4610ce8565b600a610ab082826114e5565b506000805160206116f183398151915281604051610544919061166c565b610ad6610ce8565b6006610ae287826114e5565b506007610aef86826114e5565b506008610afc85826114e5565b506009610b0984826114e5565b50600a610b1683826114e5565b50600b610b2382826114e5565b506000805160206116f1833981519152604051610b7690604080825260039082015262185b1b60ea1b6060820152608060208201819052600790820152661d5c19185d195960ca1b60a082015260c00190565b60405180910390a1505050505050565b610b8e610ce8565b6001600160a01b038116610bbd57604051631e4fbdf760e01b8152600060048201526024015b60405180910390fd5b61056b81610da3565b610bce610ce8565b6008610bda82826114e5565b506000805160206116f183398151915281604051610544919061169e565b610c058383836001610e3a565b505050565b6001600160a01b03838116600090815260016020908152604080832093861683529290522054600019811015610c835781811015610c7457604051637dc7a0d960e11b81526001600160a01b03841660048201526024810182905260448101839052606401610bb4565b610c8384848484036000610e3a565b50505050565b6001600160a01b038316610cb357604051634b637e8f60e11b815260006004820152602401610bb4565b6001600160a01b038216610cdd5760405163ec442f0560e01b815260006004820152602401610bb4565b610c05838383610f0f565b6005546001600160a01b0361010090910416331461055f5760405163118cdaa760e01b8152336004820152602401610bb4565b610d23610f1a565b6005805460ff191690557f5db9ee0a495bf2e6ff9c91a7834c1ba4fdd244a5e8aa4e537bd38aeae4b073aa335b6040516001600160a01b03909116815260200160405180910390a1565b6001600160a01b038216610d9757604051634b637e8f60e11b815260006004820152602401610bb4565b61063082600083610f0f565b600580546001600160a01b03838116610100818102610100600160a81b031985161790945560405193909204169182907f8be0079c531659141344cd1fd0a4f28419497f9722a3daafe3b4186f6b6457e090600090a35050565b610e05610f3d565b6005805460ff191660011790557f62e78cea01bee320cd4e420270b5ea74000d11b0c9f74754ebdbfc544b05a258610d503390565b6001600160a01b038416610e645760405163e602df0560e01b815260006004820152602401610bb4565b6001600160a01b038316610e8e57604051634a1406b160e11b815260006004820152602401610bb4565b6001600160a01b0380851660009081526001602090815260408083209387168352929052208290558015610c8357826001600160a01b0316846001600160a01b03167f8c5be1e5ebec7d5bd14f71427d1e84f3dd0314c0f7b2291e5b200ac8c7c3b92584604051610f0191815260200190565b60405180910390a350505050565b610c05838383610f61565b60055460ff1661055f57604051638dfc202b60e01b815260040160405180910390fd5b60055460ff161561055f5760405163d93c066560e01b815260040160405180910390fd5b610f69610f3d565b610c058383836001600160a01b038316610f9a578060026000828254610f8f91906116cf565b9091555061100c9050565b6001600160a01b03831660009081526020819052604090205481811015610fed5760405163391434e360e21b81526001600160a01b03851660048201526024810182905260448101839052606401610bb4565b6001600160a01b03841660009081526020819052604090209082900390555b6001600160a01b03821661102857600280548290039055611047565b6001600160a01b03821660009081526020819052604090208054820190555b816001600160a01b0316836001600160a01b03167fddf252ad1be2c89b69c2b068fc378daa952ba7f163c4a11628f55a4df523b3ef8360405161108c91815260200190565b60405180910390a3505050565b6000815180845260005b818110156110bf576020818501810151868301820152016110a3565b506000602082860101526020601f19601f83011685010191505092915050565b6020815260006110f26020830184611099565b9392505050565b80356001600160a01b038116811461111057600080fd5b919050565b6000806040838503121561112857600080fd5b611131836110f9565b946020939093013593505050565b60008060006060848603121561115457600080fd5b61115d846110f9565b925061116b602085016110f9565b929592945050506040919091013590565b634e487b7160e01b600052604160045260246000fd5b600082601f8301126111a357600080fd5b813567ffffffffffffffff8111156111bd576111bd61117c565b604051601f8201601f19908116603f0116810167ffffffffffffffff811182821017156111ec576111ec61117c565b60405281815283820160200185101561120457600080fd5b816020850160208301376000918101602001919091529392505050565b60006020828403121561123357600080fd5b813567ffffffffffffffff81111561124a57600080fd5b61125684828501611192565b949350505050565b60006020828403121561127057600080fd5b5035919050565b60006020828403121561128957600080fd5b6110f2826110f9565b60c0815260006112a560c0830189611099565b82810360208401526112b78189611099565b905082810360408401526112cb8188611099565b905082810360608401526112df8187611099565b905082810360808401526112f38186611099565b905082810360a08401526113078185611099565b9998505050505050505050565b6000806040838503121561132757600080fd5b611330836110f9565b915061133e602084016110f9565b90509250929050565b60008060008060008060c0878903121561136057600080fd5b863567ffffffffffffffff81111561137757600080fd5b61138389828a01611192565b965050602087013567ffffffffffffffff8111156113a057600080fd5b6113ac89828a01611192565b955050604087013567ffffffffffffffff8111156113c957600080fd5b6113d589828a01611192565b945050606087013567ffffffffffffffff8111156113f257600080fd5b6113fe89828a01611192565b935050608087013567ffffffffffffffff81111561141b57600080fd5b61142789828a01611192565b92505060a087013567ffffffffffffffff81111561144457600080fd5b61145089828a01611192565b9150509295509295509295565b600181811c9082168061147157607f821691505b60208210810361149157634e487b7160e01b600052602260045260246000fd5b50919050565b601f821115610c0557806000526020600020601f840160051c810160208510156114be5750805b601f840160051c820191505b818110156114de57600081556001016114ca565b5050505050565b815167ffffffffffffffff8111156114ff576114ff61117c565b6115138161150d845461145d565b84611497565b6020601f821160018114611547576000831561152f5750848201515b600019600385901b1c1916600184901b1784556114de565b600084815260208120601f198516915b828110156115775787850151825560209485019460019092019101611557565b50848210156115955786840151600019600387901b60f8161c191681555b50505050600190811b01905550565b604081526007604082015266191a5cd8dbdc9960ca1b60608201526080602082015260006110f26080830184611099565b60408152600b60408201526a3232b9b1b934b83a34b7b760a91b60608201526080602082015260006110f26080830184611099565b6040815260076040820152661b1bd9dbd55c9b60ca1b60608201526080602082015260006110f26080830184611099565b6040815260076040820152663a3bb4ba3a32b960c91b60608201526080602082015260006110f26080830184611099565b60408152600860408201526774656c656772616d60c01b60608201526080602082015260006110f26080830184611099565b6040815260076040820152667765627369746560c81b60608201526080602082015260006110f26080830184611099565b808201808211156104e857634e487b7160e01b600052601160045260246000fdfe30f5c4b652f95e2a697bda3258896c421eee4f29adce8fe38060f47f7aed91ada26469706673582212203ce80b3cf37ade91b3b210ada742b483f7b3c51b40de348c9fcfcedccef4269564736f6c634300081e0033a2646970667358221220a51d569c446ad2b72765695a86022b8d3f50654786c3ee51e8b9ddb41344946b64736f6c634300081e0033",
  "linkReferences": {},
  "deployedLinkReferences": {}
}